:020000040800F2
:10000000500400200D0F0008110C0008130C00080C
:10001000150C0008170C0008190C0008000000005F
:100020000000000000000000000000001B0C0008A1
:100030001D0C0008000000001F0C0008210C000827
:10004000290F00082D0F0008310F0008350F000898
:10005000390F00083D0F0008410F0008450F000848
:10006000490F00084D0F0008510F0008550F0008F8
:10007000590F00085D0F0008610F0008650F0008A8
:10008000690F00086D0F0008710F000800000000E4
:10009000000000000000000000000000750F0008D4
:1000A000790F00087D0F0008810F0008850F0008F8
:1000B000890F0008250C00088D0F0008910F00081B
:1000C000950F0008990F00089D0F0008A10F000868
:1000D000A50F0008A90F0008AD0F0008B10F000818
:1000E000B50F0008B90F0008BD0F000800000000A0
:1000F0000000000000000000000000000000000000
:1001000000000000000000000000000000000000EF
:100110000000000000000000350D0008B50D0008CB
:10012000012200F01F01CE4B8A40400943F82020F5
:1001300070470901020006D5CA4A00F00F001044BA
:1001400000F8041C7047C84B1954704700F00700B2
:1001500010B5C0F10703052B28BF0423041D072C8D
:1001600034BF0020C01E012404FA03F35B1E1940B3
:10017000814004FA00F0401E1040084310BDBB4906
:1001800081B00A6802430A6009680840009000983C
:1001900001B0704730B585B000F080F900F0C6F8C6
:1001A0006846102100F086F9B148B24D0168B24CA2
:1001B00041F020010160026802F0200204920499DB
:1001C000026842F004020260036803F0040304932F
:1001D0000499026842F0080202600022006800F000
:1001E00008000490FF210498284600F02EFA00220F
:1001F0004FF47041204600F028FAFF2100F087F804
:10020000284600F05BF94FF47F60002100900191D7
:10021000012202926946204600F050F94FF47041E5
:1002200000F075F8204600F049F900F0B0F8684693
:10023000142100F03FF91020FFF7A1FF8F4D904CE3
:1002400000F06EF801463620FFF773FF3620FFF707
:1002500067FFC8200021ADF80000019102906946B7
:10026000204600F011FA206820F0800020606168CC
:1002700021F0700161601421A06820F08000A0606E
:10028000684600F017F92020FFF779FF00F048F8E2
:1002900001463720FFF74DFF3720FFF741FF0021D0
:1002A000019141F63F704FF47A72ADF8000002926E
:1002B0006946744D284600F0E7F9286820F0800070
:1002C0002860696821F070016960A86820F08000EA
:1002D000A860E06840F00100E060216841F00101A1
:1002E0002160E86840F00100E8602968664841F054
:1002F00001012960016A41F480510162C16841F045
:100300000101C160026842F001020260FEE7009153
:100310000122019200210291022203926946704754
:10032000286800220021C0F302200FE710B55748CB
:10033000016821F0F80141F080010160026842F09B
:100340000102026001688907FCD5426822F0F002D0
:100350004260416821F4E0614160416821F46051EC
:1003600041604168890889004160416811F00C0FC3
:10037000FBD1474C204600F0D5FA4648016841F0D1
:10038000040101602046BDE8104000F0D7BA18B55E
:1003900093B006A8142100F08DF80BA8202100F0DE
:1003A00089F801A8142100F085F80220FFF7E7FE84
:1003B0003248354C0068FFF7B4FF01461D20FFF7B7
:1003C000B8FE1D20FFF7ACFE0021ADF8181000228A
:1003D0004FF4486108910792099206A9204600F05F
:1003E00053F9206820F0800020600BAAA1682A48F9
:1003F0000140A1606020E16941F40061E1610B907E
:1004000000210C910D910E910F9120464FF48051D7
:1004100000F07CF9E06920F48060E06140F20222A3
:10042000606820F0700060600923A06820F0800000
:10043000A0600F48016841F008010160006800F009
:100440000800009000990C480192022103910022BB
:100450000293049201A900F09BFA14B010BD0000B1
:1004600000E100E018ED00E000E400E01C100240B4
:100470001810024000080140000C01400CED00E0A3
:100480000010004000140040000400400010024032
:1004900000127A0010E000E0F8BFFFFF80B50320F3
:1004A00000F0C7FA002000F00DFB00F02BFB00204D
:1004B00002BD0000002200F047BB00002DE9F84318
:1004C000024600200025634BDFF88C9101270E685F
:1004D000AF403E40BE4240F0AC804C686CB3012C53
:1004E00020D0022C23D0032C32D0112C1CD0122C63
:1004F00020D0DFF868E174451CBFDFF864E1744583
:100500001BD0DFF860E174451CBFDFF85CE1744587
:1005100013D0DFF858E174451CBFDFF854E174458F
:100520000BD016E0C86814E0C868001D11E0C86868
:1005300008300EE0C8680C300BE0886808B9042069
:1005400007E0012819BF082057610820176100E063
:100550000020B6F5807F03D294464FEA850E05E071
:10056000A5F1080402F1040C4FEA840E0F27DCF811
:10057000008007FA0EF428EA040400FA0EFE4EEAA0
:100580000404CCF800404C68E40052D5D9F800408F
:10059000DFF8E0E044F00104C9F800404FEA950CB0
:1005A000D9F8004004F0010400944FEA8508009C4B
:1005B0005EF82C4008F00C0807FA08F724EA070751
:1005C0002D4CA24208BF00240ED02C4CA24208BFE2
:1005D000012409D02A4CA24208BF022404D0294C8D
:1005E000A2420CBF0324042404FA08F427434EF863
:1005F0002C70F7434C68E4031C684CBF34433C4008
:100600001C604C68A4035C684CBF34433C405C6095
:100610004C68E4029C684CBF34433C409C604C688E
:10062000A40203D5DF683E43DE6002E0DE683740A7
:10063000DF606D1C0F2D7FF649AFBDE8F183806848
:10064000084018BF0120C0B2704702B90904016117
:100650007047000000040140181002400000111013
:1006600000001210000021100000221000003110C4
:10067000000032100800014000080140000C014059
:100680000010014000140140F0B5DFF880E203687B
:10069000DFF88C42DFF88452DFF87C62DFF8747296
:1006A000DFF86CC2704518BFB0F1804F03D06045D1
:1006B00018BFB84209D14A6823F07003134370454C
:1006C0001CBFB0F1804F604507D0B84218BFB042A0
:1006D00003D0A84218BFA04203D1CA6823F44073D4
:1006E0001343036070458A68C26218BFB0420A882B
:1006F000826203D0A84218BFA04201D1097C0163E5
:10070000416941F0010141610120F0BD2DE9F04155
:100710000B4611460022012BDFF80442DFF8FC51A2
:10072000DFF8F461DFF8E48108D0102B3DD0B3F599
:10073000807F3DD0B3F5805F3ED069E0026A520809
:1007400052000262036AD0F804E087690A6827F061
:100750007307174323F002020B691A4353084A68D0
:10076000404518BFB04242EA430C03D0A84218BF2C
:10077000A04212D14A692CF0080343EA820222F017
:1007800004038A6843EA820C8A692EF480731A4350
:10079000CB6922F4007242EA430EC0F804E087619C
:1007A000C9684163C0F820C031E000F034F801E0CE
:1007B00000F06FF802462BE0026A22F480520262D7
:1007C0004045076A4268C369D1F800E023F4E64374
:1007D00043EA0E23D1F810E027F4005747EA0E371A
:1007E000D1F804E027F4805718BFB04247EA0E372B
:1007F00003D0A84218BFA04204D18C6922F48042E1
:1008000042EA84124260C361C9680164076201223E
:100810001046BDE8F08170B5026A3C4E22F010022D
:100820000262B042026A446883690D6823F4E643B9
:1008300043EA05230D6922F0200242EA05124D68C1
:1008400022F0100242EA05121CBF334DA84205D027
:10085000324EB0421CBF324DA84213D14D6922F036
:10086000800242EA85128D6822F0400242EA851237
:100870008D6924F4806444EA8504CD6924F400641D
:1008800044EAC50444608361C9688163026201204F
:1008900070BD70B5026A22F480720262036A456814
:1008A000C4690A680E6924F07304144323F40073C6
:1008B00043EA06234A68154E23F4807343EA022371
:1008C000B0421CBF144A904205D0144EB0421CBF27
:1008D000134A904213D14A6923F4006343EA822306
:1008E0008A6823F4806343EA82238A6925F4805569
:1008F00045EA0215CA6925F4005545EA42154560E6
:10090000C461C968C1630362012070BD002C01404D
:100910000004004000080040004001400044014045
:10092000004801404FF47A720649B0FBF2F0401ED5
:10093000486000238B60052008607047024908600A
:100940007047000010E000E01C00002030B500F00F
:1009500010F80F2503E030B500F00BF803259B00DD
:10096000B1FA81F19D408900AC438A402243026084
:1009700030BD00EB116091FAA1F3B3FA83F391FA61
:10098000A1F10468704730B5FFF7F3FF0425E6E7EF
:100990002DE9F0410D4604462E683602360C96FAD3
:1009A000A6F0B0FA80F7FFB236FA07F031D0C007F0
:1009B0002DD5082F07D34FF00110A7F1080188406B
:1009C00040F0806803E040F2011000FA07F86A681E
:1009D00041462046FFF7BAFF2869E1684FEA18222E
:1009E000914392FAA2F2B2FA82F290400843E06098
:1009F0006868012818BF092809D1AA68414620461D
:100A0000FFF7A9FFEA6841462046FFF7BCFF7F1CBD
:100A1000CAE70120BDE8F0810901020006D5244A99
:100A200000F00F00104400F8041C7047214B1954CB
:100A30007047214B19684FF6FF020002114000F485
:100A4000E06008431D4908431860704738B51A4BE9
:100A50001C68C4F30223C3F10704052C28BF042437
:100A60001D1D072D34BF0023DB1E012505FA04F4EC
:100A7000641E2140994005FA03F35B1E1A4011439E
:100A8000BDE83440C8E710B5401EB0F1807F01D307
:100A9000012010BD0A4C60600F214FF0FF30FFF7BE
:100AA000BBFF0021A16007202060002010BD0000D6
:100AB00018ED00E000E400E00CED00E00000FA05B5
:100AC00010E000E038B50D4D0D4B2A7804464FF488
:100AD0007A711868B1FBF2F2B0FBF2F0FFF7D3FFC6
:100AE00050B9102C08D2002221464FF0FF30FFF7FA
:100AF000ADFFAC60002032BD012032BD10000020EF
:100B00001C0000200E4881B0016841F00101016025
:100B1000026802F0010200920099426842F080529D
:100B20004260406800F080500090009805480168DD
:100B300021F0E06141F00071016001B0704700BF39
:100B4000181002400400014000B500BF1300964693
:100B50009446103928BFA0E80C50FAD85FEA417CCF
:100B600028BF0CC048BF40F8042BC90728BF20F895
:100B7000022B48BF00F8012B00BD000038B5044629
:100B80008F4D0022FF212846FFF75FFD102C3ED835
:100B9000DFE804F0090C0F1215181B1E362124275C
:100BA0002A2D3033360001223F212BE0012206217D
:100BB00028E001225B2125E001224F2122E00122D1
:100BC00066211FE001226D211CE001227D2119E038
:100BD0000122072116E001226F2113E00122772173
:100BE00010E001227C210DE0012239210AE00122DE
:100BF0005E2107E00122792104E00122712101E058
:100C000001227F212846BDE83840FFF71EBD31BDD7
:100C10007047FEE7FEE7FEE7FEE770477047704764
:100C200000F0E8B8F8B5674A674D684C684E694F00
:100C30006FF001001060102100F078F8002807BF65
:100C40000120206010212160202100F06FF8002891
:100C500007BF0220606010216160402100F066F84B
:100C6000002807BF0320A0601021A160802100F0B0
:100C70005DF8002807BF0420E0601021E1604FF418
:100C8000807100F053F8002807BF05202061102173
:100C900021614FF4007100F049F8002807BF0620D9
:100CA0006061102161614FF4806100F03FF800281D
:100CB00007BF0720A0611021A1614FF4006100F07F
:100CC00035F8454A454B464D002807BF0820E061EE
:100CD0001021E1611068434998B920683860606864
:100CE0003060A0682860E0681860086800F1010CB6
:100CF000B0F5FA7FC1F800C003D1012010600020D8
:100D000008601068012810D1206938606769376071
:100D1000A0692860E4691C600868431CB0F5FA7F8C
:100D20000B6002D1002010600860F1BD2846FFF77B
:100D300086BC000070B52C492C4C234D6FF001008F
:100D40000860012226684FF470412846FFF77DFCB9
:100D500006F00306032E15D8DFE806F00E0A060299
:100D600000224FF400410AE000224FF4804106E0E7
:100D700000224FF4005102E000224FF48051284637
:100D8000FFF763FC206800F0030003280ED8DFE8BB
:100D900000F0020507090F49086805E00C4802E069
:100DA0000F4800E00D480068FFF7E8FE2068401C8F
:100DB000206070BD0E496FF00100086070470000B0
:100DC0000008014010040040000C01402C000020ED
:100DD0000400002000000020280000200C0000205B
:100DE00008000020240000201010004020000020F7
:100DF0001014004002494A68087882184A60704717
:100E00001000002010B50F4A0F49106840F0010093
:100E1000106053680D480B40536014680440146020
:100E2000116821F4802111604FF41F01506820F4F3
:100E3000FE00506091600020D0624FF00061044AD3
:100E4000116010BD001002400000FFF8FFFFF6FE29
:100E500008ED00E030B5016884684218416802EB93
:100E60005103C9070BD54C4409E012F9011B12F8D4
:100E7000015B002904F8015B05D5491CF9D19A42B0
:100E8000F3D10C3030BD491EF1D5F8E710B5074954
:100E900079441831064C7C44163404E00A68081D75
:100EA000114488470146A142F8D110BD0800000056
:100EB00014000000A1FFFFFF080100003C0000003B
:100EC0000000002000F00DF8002801D0FFF7DEFF41
:100ED000AFF300800020AFF30080FFF75BF900F074
:100EE00002F80120704700F001B8000007463846BC
:100EF00000F002F8FBE7000080B5AFF30080024A83
:100F000011001820ABBEFBE7260002000148804715
:100F100001480047050E00081D0F0008AFF30080D0
:100F2000AFF30080FFF7CEFFFFF7FEBFFFF7FEBF76
:100F3000FFF7FEBFFFF7FEBFFFF7FEBFFFF7FEBFE5
:100F4000FFF7FEBFFFF7FEBFFFF7FEBFFFF7FEBFD5
:100F5000FFF7FEBFFFF7FEBFFFF7FEBFFFF7FEBFC5
:100F6000FFF7FEBFFFF7FEBFFFF7FEBFFFF7FEBFB5
:100F7000FFF7FEBFFFF7FEBFFFF7FEBFFFF7FEBFA5
:100F8000FFF7FEBFFFF7FEBFFFF7FEBFFFF7FEBF95
:100F9000FFF7FEBFFFF7FEBFFFF7FEBFFFF7FEBF85
:100FA000FFF7FEBFFFF7FEBFFFF7FEBFFFF7FEBF75
:100FB000FFF7FEBFFFF7FEBFFFF7FEBFFFF7FEBF65
:100FC0000010FD000010FD000010FD000010FD00ED
:0E0FD0000001F9000010FC0002366E01D40092
:0400000508000F1DC3
:00000001FF
